{
  "contractName": "MarketPlace",
  "abi": [
    {
      "constant": true,
      "inputs": [],
      "name": "ETHUSD",
      "outputs": [
        {
          "name": "",
          "type": "string"
        }
      ],
      "payable": false,
      "stateMutability": "view",
      "type": "function"
    },
    {
      "constant": true,
      "inputs": [
        {
          "name": "",
          "type": "uint256"
        }
      ],
      "name": "items",
      "outputs": [
        {
          "name": "id",
          "type": "uint256"
        },
        {
          "name": "seller",
          "type": "address"
        },
        {
          "name": "buyer",
          "type": "address"
        },
        {
          "name": "name",
          "type": "string"
        },
        {
          "name": "description",
          "type": "string"
        },
        {
          "name": "price",
          "type": "uint256"
        }
      ],
      "payable": false,
      "stateMutability": "view",
      "type": "function"
    },
    {
      "inputs": [],
      "payable": true,
      "stateMutability": "payable",
      "type": "constructor"
    },
    {
      "payable": false,
      "stateMutability": "nonpayable",
      "type": "fallback"
    },
    {
      "anonymous": false,
      "inputs": [
        {
          "indexed": false,
          "name": "nextStep",
          "type": "string"
        }
      ],
      "name": "LogConstructorInitiated",
      "type": "event"
    },
    {
      "anonymous": false,
      "inputs": [
        {
          "indexed": false,
          "name": "price",
          "type": "string"
        }
      ],
      "name": "LogPriceUpdated",
      "type": "event"
    },
    {
      "anonymous": false,
      "inputs": [
        {
          "indexed": false,
          "name": "description",
          "type": "string"
        }
      ],
      "name": "LogNewOraclizeQuery",
      "type": "event"
    },
    {
      "anonymous": false,
      "inputs": [
        {
          "indexed": true,
          "name": "_id",
          "type": "uint256"
        },
        {
          "indexed": true,
          "name": "_seller",
          "type": "address"
        },
        {
          "indexed": false,
          "name": "_name",
          "type": "string"
        },
        {
          "indexed": false,
          "name": "_price",
          "type": "uint256"
        }
      ],
      "name": "sellItemEvent",
      "type": "event"
    },
    {
      "anonymous": false,
      "inputs": [
        {
          "indexed": true,
          "name": "_id",
          "type": "uint256"
        },
        {
          "indexed": true,
          "name": "_seller",
          "type": "address"
        },
        {
          "indexed": true,
          "name": "_buyer",
          "type": "address"
        },
        {
          "indexed": false,
          "name": "_name",
          "type": "string"
        },
        {
          "indexed": false,
          "name": "_price",
          "type": "uint256"
        }
      ],
      "name": "buyItemEvent",
      "type": "event"
    },
    {
      "constant": false,
      "inputs": [
        {
          "name": "myid",
          "type": "bytes32"
        },
        {
          "name": "result",
          "type": "string"
        }
      ],
      "name": "__callback",
      "outputs": [],
      "payable": false,
      "stateMutability": "nonpayable",
      "type": "function"
    },
    {
      "constant": false,
      "inputs": [
        {
          "name": "id",
          "type": "bytes32"
        },
        {
          "name": "result",
          "type": "string"
        },
        {
          "name": "proof",
          "type": "bytes"
        }
      ],
      "name": "__callback",
      "outputs": [],
      "payable": false,
      "stateMutability": "nonpayable",
      "type": "function"
    },
    {
      "constant": false,
      "inputs": [],
      "name": "updatePrice",
      "outputs": [],
      "payable": true,
      "stateMutability": "payable",
      "type": "function"
    },
    {
      "constant": true,
      "inputs": [],
      "name": "getNumberOfItems",
      "outputs": [
        {
          "name": "",
          "type": "uint256"
        }
      ],
      "payable": false,
      "stateMutability": "view",
      "type": "function"
    },
    {
      "constant": true,
      "inputs": [],
      "name": "getItemsForSale",
      "outputs": [
        {
          "name": "",
          "type": "uint256[]"
        }
      ],
      "payable": false,
      "stateMutability": "view",
      "type": "function"
    },
    {
      "constant": false,
      "inputs": [
        {
          "name": "_name",
          "type": "string"
        },
        {
          "name": "_description",
          "type": "string"
        },
        {
          "name": "_price",
          "type": "uint256"
        }
      ],
      "name": "sellItem",
      "outputs": [],
      "payable": false,
      "stateMutability": "nonpayable",
      "type": "function"
    },
    {
      "constant": false,
      "inputs": [
        {
          "name": "_id",
          "type": "uint256"
        }
      ],
      "name": "buyItem",
      "outputs": [],
      "payable": true,
      "stateMutability": "payable",
      "type": "function"
    },
    {
      "constant": false,
      "inputs": [],
      "name": "kill",
      "outputs": [],
      "payable": false,
      "stateMutability": "nonpayable",
      "type": "function"
    }
  ],
  "bytecode": "0x6080604052336000806101000a81548173ffffffffffffffffffffffffffffffffffffffff021916908373ffffffffffffffffffffffffffffffffffffffff16021790555073103c6cab3cc9f2c0eb9c46c179835fd5c607395b600160006101000a81548173ffffffffffffffffffffffffffffffffffffffff021916908373ffffffffffffffffffffffffffffffffffffffff160217905550620000fb60017f01000000000000000000000000000000000000000000000000000000000000000260107f010000000000000000000000000000000000000000000000000000000000000002176200011a640100000000026401000000009004565b62000114620004d2640100000000026401000000009004565b62001776565b6000600160009054906101000a900473ffffffffffffffffffffffffffffffffffffffff1673ffffffffffffffffffffffffffffffffffffffff1614806200019d575060006200019b600160009054906101000a900473ffffffffffffffffffffffffffffffffffffffff1662000738640100000000026401000000009004565b145b15620001c057620001be600062000743640100000000026401000000009004565b505b600160009054906101000a900473ffffffffffffffffffffffffffffffffffffffff1673ffffffffffffffffffffffffffffffffffffffff166338cc48316040518163ffffffff167c0100000000000000000000000000000000000000000000000000000000028152600401602060405180830381600087803b1580156200024757600080fd5b505af11580156200025c573d6000803e3d6000fd5b505050506040513d60208110156200027357600080fd5b810190808051906020019092919050505073ffffffffffffffffffffffffffffffffffffffff16600260009054906101000a900473ffffffffffffffffffffffffffffffffffffffff1673ffffffffffffffffffffffffffffffffffffffff16141515620003e057600160009054906101000a900473ffffffffffffffffffffffffffffffffffffffff1673ffffffffffffffffffffffffffffffffffffffff166338cc48316040518163ffffffff167c0100000000000000000000000000000000000000000000000000000000028152600401602060405180830381600087803b1580156200036257600080fd5b505af115801562000377573d6000803e3d6000fd5b505050506040513d60208110156200038e57600080fd5b8101908080519060200190929190505050600260006101000a81548173ffffffffffffffffffffffffffffffffffffffff021916908373ffffffffffffffffffffffffffffffffffffffff1602179055505b600260009054906101000a900473ffffffffffffffffffffffffffffffffffffffff1673ffffffffffffffffffffffffffffffffffffffff1663688dcfd7826040518263ffffffff167c010000000000000000000000000000000000000000000000000000000002815260040180827effffffffffffffffffffffffffffffffffffffffffffffffffffffffffffff19167effffffffffffffffffffffffffffffffffffffffffffffffffffffffffffff19168152602001915050600060405180830381600087803b158015620004b657600080fd5b505af1158015620004cb573d6000803e3d6000fd5b5050505050565b3073ffffffffffffffffffffffffffffffffffffffff1631620005396040805190810160405280600381526020017f55524c000000000000000000000000000000000000000000000000000000000081525062000765640100000000026401000000009004565b1115620005fa577f621c2856e3b87f81235f8ac8a22bbb40a0142961960710d00b2b6c380902b57e60405180806020018281038252604b8152602001807f4f7261636c697a6520717565727920776173204e4f542073656e742c20706c6581526020017f6173652061646420736f6d652045544820746f20636f76657220666f7220746881526020017f652071756572792066656500000000000000000000000000000000000000000081525060600191505060405180910390a162000736565b7f621c2856e3b87f81235f8ac8a22bbb40a0142961960710d00b2b6c380902b57e6040518080602001828103825260358152602001807f4f7261636c697a65207175657279207761732073656e742c207374616e64696e81526020017f6720627920666f722074686520616e737765722e2e000000000000000000000081525060400191505060405180910390a1620007346040805190810160405280600381526020017f55524c0000000000000000000000000000000000000000000000000000000000815250606060405190810160405280603881526020017f6a736f6e2868747470733a2f2f6170692e676461782e636f6d2f70726f64756381526020017f74732f4554482d5553442f7469636b6572292e7072696365000000000000000081525062000b6a640100000000026401000000009004565b505b565b6000813b9050919050565b60006200075e6200114c640100000000026401000000009004565b9050919050565b600080600160009054906101000a900473ffffffffffffffffffffffffffffffffffffffff1673ffffffffffffffffffffffffffffffffffffffff161480620007e957506000620007e7600160009054906101000a900473ffffffffffffffffffffffffffffffffffffffff1662000738640100000000026401000000009004565b145b156200080c576200080a600062000743640100000000026401000000009004565b505b600160009054906101000a900473ffffffffffffffffffffffffffffffffffffffff1673ffffffffffffffffffffffffffffffffffffffff166338cc48316040518163ffffffff167c0100000000000000000000000000000000000000000000000000000000028152600401602060405180830381600087803b1580156200089357600080fd5b505af1158015620008a8573d6000803e3d6000fd5b505050506040513d6020811015620008bf57600080fd5b810190808051906020019092919050505073ffffffffffffffffffffffffffffffffffffffff16600260009054906101000a900473ffffffffffffffffffffffffffffffffffffffff1673ffffffffffffffffffffffffffffffffffffffff1614151562000a2c57600160009054906101000a900473ffffffffffffffffffffffffffffffffffffffff1673ffffffffffffffffffffffffffffffffffffffff166338cc48316040518163ffffffff167c0100000000000000000000000000000000000000000000000000000000028152600401602060405180830381600087803b158015620009ae57600080fd5b505af1158015620009c3573d6000803e3d6000fd5b505050506040513d6020811015620009da57600080fd5b8101908080519060200190929190505050600260006101000a81548173ffffffffffffffffffffffffffffffffffffffff021916908373ffffffffffffffffffffffffffffffffffffffff1602179055505b600260009054906101000a900473ffffffffffffffffffffffffffffffffffffffff1673ffffffffffffffffffffffffffffffffffffffff1663524f3889836040518263ffffffff167c01000000000000000000000000000000000000000000000000000000000281526004018080602001828103825283818151815260200191508051906020019080838360005b8381101562000ad857808201518184015260208101905062000abb565b50505050905090810190601f16801562000b065780820380516001836020036101000a031916815260200191505b5092505050602060405180830381600087803b15801562000b2657600080fd5b505af115801562000b3b573d6000803e3d6000fd5b505050506040513d602081101562000b5257600080fd5b81019080805190602001909291905050509050919050565b6000806000600160009054906101000a900473ffffffffffffffffffffffffffffffffffffffff1673ffffffffffffffffffffffffffffffffffffffff16148062000bf05750600062000bee600160009054906101000a900473ffffffffffffffffffffffffffffffffffffffff1662000738640100000000026401000000009004565b145b1562000c135762000c11600062000743640100000000026401000000009004565b505b600160009054906101000a900473ffffffffffffffffffffffffffffffffffffffff1673ffffffffffffffffffffffffffffffffffffffff166338cc48316040518163ffffffff167c0100000000000000000000000000000000000000000000000000000000028152600401602060405180830381600087803b15801562000c9a57600080fd5b505af115801562000caf573d6000803e3d6000fd5b505050506040513d602081101562000cc657600080fd5b810190808051906020019092919050505073ffffffffffffffffffffffffffffffffffffffff16600260009054906101000a900473ffffffffffffffffffffffffffffffffffffffff1673ffffffffffffffffffffffffffffffffffffffff1614151562000e3357600160009054906101000a900473ffffffffffffffffffffffffffffffffffffffff1673ffffffffffffffffffffffffffffffffffffffff166338cc48316040518163ffffffff167c0100000000000000000000000000000000000000000000000000000000028152600401602060405180830381600087803b15801562000db557600080fd5b505af115801562000dca573d6000803e3d6000fd5b505050506040513d602081101562000de157600080fd5b8101908080519060200190929190505050600260006101000a81548173ffffffffffffffffffffffffffffffffffffffff021916908373ffffffffffffffffffffffffffffffffffffffff1602179055505b600260009054906101000a900473ffffffffffffffffffffffffffffffffffffffff1673ffffffffffffffffffffffffffffffffffffffff1663524f3889856040518263ffffffff167c01000000000000000000000000000000000000000000000000000000000281526004018080602001828103825283818151815260200191508051906020019080838360005b8381101562000edf57808201518184015260208101905062000ec2565b50505050905090810190601f16801562000f0d5780820380516001836020036101000a031916815260200191505b5092505050602060405180830381600087803b15801562000f2d57600080fd5b505af115801562000f42573d6000803e3d6000fd5b505050506040513d602081101562000f5957600080fd5b8101908080519060200190929190505050905062030d403a02670de0b6b3a76400000181111562000f91576000600102915062001145565b600260009054906101000a900473ffffffffffffffffffffffffffffffffffffffff1673ffffffffffffffffffffffffffffffffffffffff1663adf59f9982600087876040518563ffffffff167c0100000000000000000000000000000000000000000000000000000000028152600401808481526020018060200180602001838103835285818151815260200191508051906020019080838360005b838110156200104b5780820151818401526020810190506200102e565b50505050905090810190601f168015620010795780820380516001836020036101000a031916815260200191505b50838103825284818151815260200191508051906020019080838360005b83811015620010b457808201518184015260208101905062001097565b50505050905090810190601f168015620010e25780820380516001836020036101000a031916815260200191505b50955050505050506020604051808303818588803b1580156200110457600080fd5b505af115801562001119573d6000803e3d6000fd5b50505050506040513d60208110156200113157600080fd5b810190808051906020019092919050505091505b5092915050565b6000806200117d731d3b2638a7cc9f2cb3d298a3da7a90b67e5506ed62000738640100000000026401000000009004565b11156200123257731d3b2638a7cc9f2cb3d298a3da7a90b67e5506ed600160006101000a81548173ffffffffffffffffffffffffffffffffffffffff021916908373ffffffffffffffffffffffffffffffffffffffff160217905550620012286040805190810160405280600b81526020017f6574685f6d61696e6e6574000000000000000000000000000000000000000000815250620016ab640100000000026401000000009004565b60019050620016a8565b60006200126273c03a2615d5efaf5f49f60b7bb6583eaec212fdf162000738640100000000026401000000009004565b1115620013175773c03a2615d5efaf5f49f60b7bb6583eaec212fdf1600160006101000a81548173ffffffffffffffffffffffffffffffffffffffff021916908373ffffffffffffffffffffffffffffffffffffffff1602179055506200130d6040805190810160405280600c81526020017f6574685f726f707374656e330000000000000000000000000000000000000000815250620016ab640100000000026401000000009004565b60019050620016a8565b60006200134773b7a07bcf2ba2f2703b24c0691b5278999c59ac7e62000738640100000000026401000000009004565b1115620013fc5773b7a07bcf2ba2f2703b24c0691b5278999c59ac7e600160006101000a81548173ffffffffffffffffffffffffffffffffffffffff021916908373ffffffffffffffffffffffffffffffffffffffff160217905550620013f26040805190810160405280600981526020017f6574685f6b6f76616e0000000000000000000000000000000000000000000000815250620016ab640100000000026401000000009004565b60019050620016a8565b60006200142c73146500cfd35b22e4a392fe0adc06de1a1368ed4862000738640100000000026401000000009004565b1115620014e15773146500cfd35b22e4a392fe0adc06de1a1368ed48600160006101000a81548173ffffffffffffffffffffffffffffffffffffffff021916908373ffffffffffffffffffffffffffffffffffffffff160217905550620014d76040805190810160405280600b81526020017f6574685f72696e6b656279000000000000000000000000000000000000000000815250620016ab640100000000026401000000009004565b60019050620016a8565b600062001511736f485c8bf6fc43ea212e93bbf8ce046c7f1cb47562000738640100000000026401000000009004565b11156200157757736f485c8bf6fc43ea212e93bbf8ce046c7f1cb475600160006101000a81548173ffffffffffffffffffffffffffffffffffffffff021916908373ffffffffffffffffffffffffffffffffffffffff16021790555060019050620016a8565b6000620015a77320e12a1f859b3feae5fb2a0a32c18f5a65555bbf62000738640100000000026401000000009004565b11156200160d577320e12a1f859b3feae5fb2a0a32c18f5a65555bbf600160006101000a81548173ffffffffffffffffffffffffffffffffffffffff021916908373ffffffffffffffffffffffffffffffffffffffff16021790555060019050620016a8565b60006200163d7351efaf4c8b3c9afbd5ab9f4bbc82784ab6ef8faa62000738640100000000026401000000009004565b1115620016a3577351efaf4c8b3c9afbd5ab9f4bbc82784ab6ef8faa600160006101000a81548173ffffffffffffffffffffffffffffffffffffffff021916908373ffffffffffffffffffffffffffffffffffffffff16021790555060019050620016a8565b600090505b90565b8060039080519060200190620016c3929190620016c7565b5050565b828054600181600116156101000203166002900490600052602060002090601f016020900481019282601f106200170a57805160ff19168380011785556200173b565b828001600101855582156200173b579182015b828111156200173a5782518255916020019190600101906200171d565b5b5090506200174a91906200174e565b5090565b6200177391905b808211156200176f57600081600090555060010162001755565b5090565b90565b6125ea80620017866000396000f3006080604052600436106100a4576000357c0100000000000000000000000000000000000000000000000000000000900463ffffffff168063064ddd04146100b657806327dc297e1461012257806338bbfa501461019957806341c0e1b5146102565780635f1305ef1461026d578063673a7e2814610326578063730ef2691461033057806373db08441461035b578063bfb231d2146103eb578063e7fb74c714610571575b3480156100b057600080fd5b50600080fd5b3480156100c257600080fd5b506100cb610591565b6040518080602001828103825283818151815260200191508051906020019060200280838360005b8381101561010e5780820151818401526020810190506100f3565b505050509050019250505060405180910390f35b34801561012e57600080fd5b506101976004803603810190808035600019169060200190929190803590602001908201803590602001908080601f016020809104026020016040519081016040528093929190818152602001838380828437820191505050505050919291929050505061074f565b005b3480156101a557600080fd5b506102546004803603810190808035600019169060200190929190803590602001908201803590602001908080601f0160208091040260200160405190810160405280939291908181526020018383808284378201915050505050509192919290803590602001908201803590602001908080601f0160208091040260200160405190810160405280939291908181526020018383808284378201915050505050509192919290505050610792565b005b34801561026257600080fd5b5061026b6108b1565b005b34801561027957600080fd5b50610324600480360381019080803590602001908201803590602001908080601f0160208091040260200160405190810160405280939291908181526020018383808284378201915050505050509192919290803590602001908201803590602001908080601f016020809104026020016040519081016040528093929190818152602001838380828437820191505050505050919291929080359060200190929190505050610946565b005b61032e610b6c565b005b34801561033c57600080fd5b50610345610dae565b6040518082815260200191505060405180910390f35b34801561036757600080fd5b50610370610db8565b6040518080602001828103825283818151815260200191508051906020019080838360005b838110156103b0578082015181840152602081019050610395565b50505050905090810190601f1680156103dd5780820380516001836020036101000a031916815260200191505b509250505060405180910390f35b3480156103f757600080fd5b5061041660048036038101908080359060200190929190505050610e56565b604051808781526020018673ffffffffffffffffffffffffffffffffffffffff1673ffffffffffffffffffffffffffffffffffffffff1681526020018573ffffffffffffffffffffffffffffffffffffffff1673ffffffffffffffffffffffffffffffffffffffff1681526020018060200180602001848152602001838103835286818151815260200191508051906020019080838360005b838110156104ca5780820151818401526020810190506104af565b50505050905090810190601f1680156104f75780820380516001836020036101000a031916815260200191505b50838103825285818151815260200191508051906020019080838360005b83811015610530578082015181840152602081019050610515565b50505050905090810190601f16801561055d5780820380516001836020036101000a031916815260200191505b509850505050505050505060405180910390f35b61058f60048036038101908080359060200190929190505050611002565b005b606080600080606060008060085414156105dd5760006040519080825280602002602001820160405280156105d55781602001602082028038833980820191505090505b509550610747565b60085460405190808252806020026020018201604052801561060e5781602001602082028038833980820191505090505b50945060009350600192505b600854831115156106c35760006007600085815260200190815260200160002060020160009054906101000a900473ffffffffffffffffffffffffffffffffffffffff1673ffffffffffffffffffffffffffffffffffffffff1614156106b6576007600084815260200190815260200160002060000154858581518110151561069f57fe5b906020019060200201818152505083806001019450505b828060010193505061061a565b836040519080825280602002602001820160405280156106f25781602001602082028038833980820191505090505b509150600090505b8381101561074357848181518110151561071057fe5b90602001906020020151828281518110151561072857fe5b906020019060200201818152505080806001019150506106fa565b8195505b505050505090565b61078e828260006040519080825280601f01601f1916602001820160405280156107885781602001602082028038833980820191505090505b50610792565b5050565b61079a6112f1565b73ffffffffffffffffffffffffffffffffffffffff163373ffffffffffffffffffffffffffffffffffffffff161415156107d357600080fd5b81600690805190602001906107e9929190612499565b507f71f1a5645e51a2da828ffcf79cc17da88eb25e1bca8b9dced23210847a4769c1600660405180806020018281038252838181546001816001161561010002031660029004815260200191508054600181600116156101000203166002900480156108965780601f1061086b57610100808354040283529160200191610896565b820191906000526020600020905b81548152906001019060200180831161087957829003601f168201915b50509250505060405180910390a16108ac610b6c565b505050565b6000809054906101000a900473ffffffffffffffffffffffffffffffffffffffff1673ffffffffffffffffffffffffffffffffffffffff163373ffffffffffffffffffffffffffffffffffffffff1614151561090c57600080fd5b6000809054906101000a900473ffffffffffffffffffffffffffffffffffffffff1673ffffffffffffffffffffffffffffffffffffffff16ff5b60086000815480929190600101919050555060c06040519081016040528060085481526020013373ffffffffffffffffffffffffffffffffffffffff168152602001600073ffffffffffffffffffffffffffffffffffffffff168152602001848152602001838152602001828152506007600060085481526020019081526020016000206000820151816000015560208201518160010160006101000a81548173ffffffffffffffffffffffffffffffffffffffff021916908373ffffffffffffffffffffffffffffffffffffffff16021790555060408201518160020160006101000a81548173ffffffffffffffffffffffffffffffffffffffff021916908373ffffffffffffffffffffffffffffffffffffffff1602179055506060820151816003019080519060200190610a7e929190612519565b506080820151816004019080519060200190610a9b929190612519565b5060a082015181600501559050503373ffffffffffffffffffffffffffffffffffffffff166008547f4930f96e2b177430c5901b63b19095d5986c564e98769d88b31b49a200b8c54f85846040518080602001838152602001828103825284818151815260200191508051906020019080838360005b83811015610b2c578082015181840152602081019050610b11565b50505050905090810190601f168015610b595780820380516001836020036101000a031916815260200191505b50935050505060405180910390a3505050565b3073ffffffffffffffffffffffffffffffffffffffff1631610bc26040805190810160405280600381526020017f55524c0000000000000000000000000000000000000000000000000000000000815250611653565b1115610c81577f621c2856e3b87f81235f8ac8a22bbb40a0142961960710d00b2b6c380902b57e60405180806020018281038252604b8152602001807f4f7261636c697a6520717565727920776173204e4f542073656e742c20706c6581526020017f6173652061646420736f6d652045544820746f20636f76657220666f7220746881526020017f652071756572792066656500000000000000000000000000000000000000000081525060600191505060405180910390a1610dac565b7f621c2856e3b87f81235f8ac8a22bbb40a0142961960710d00b2b6c380902b57e6040518080602001828103825260358152602001807f4f7261636c697a65207175657279207761732073656e742c207374616e64696e81526020017f6720627920666f722074686520616e737765722e2e000000000000000000000081525060400191505060405180910390a1610daa6040805190810160405280600381526020017f55524c0000000000000000000000000000000000000000000000000000000000815250606060405190810160405280603881526020017f6a736f6e2868747470733a2f2f6170692e676461782e636f6d2f70726f64756381526020017f74732f4554482d5553442f7469636b6572292e70726963650000000000000000815250611a27565b505b565b6000600854905090565b60068054600181600116156101000203166002900480601f016020809104026020016040519081016040528092919081815260200182805460018160011615610100020316600290048015610e4e5780601f10610e2357610100808354040283529160200191610e4e565b820191906000526020600020905b815481529060010190602001808311610e3157829003601f168201915b505050505081565b60076020528060005260406000206000915090508060000154908060010160009054906101000a900473ffffffffffffffffffffffffffffffffffffffff16908060020160009054906101000a900473ffffffffffffffffffffffffffffffffffffffff1690806003018054600181600116156101000203166002900480601f016020809104026020016040519081016040528092919081815260200182805460018160011615610100020316600290048015610f545780601f10610f2957610100808354040283529160200191610f54565b820191906000526020600020905b815481529060010190602001808311610f3757829003601f168201915b505050505090806004018054600181600116156101000203166002900480601f016020809104026020016040519081016040528092919081815260200182805460018160011615610100020316600290048015610ff25780601f10610fc757610100808354040283529160200191610ff2565b820191906000526020600020905b815481529060010190602001808311610fd557829003601f168201915b5050505050908060050154905086565b60008060085411151561101457600080fd5b60008211801561102657506008548211155b151561103157600080fd5b60076000838152602001908152602001600020905060008160020160009054906101000a900473ffffffffffffffffffffffffffffffffffffffff1673ffffffffffffffffffffffffffffffffffffffff1614151561108f57600080fd5b3373ffffffffffffffffffffffffffffffffffffffff168160010160009054906101000a900473ffffffffffffffffffffffffffffffffffffffff1673ffffffffffffffffffffffffffffffffffffffff16141515156110ee57600080fd5b34816005015414151561110057600080fd5b338160020160006101000a81548173ffffffffffffffffffffffffffffffffffffffff021916908373ffffffffffffffffffffffffffffffffffffffff1602179055508060010160009054906101000a900473ffffffffffffffffffffffffffffffffffffffff1673ffffffffffffffffffffffffffffffffffffffff166108fc349081150290604051600060405180830381858888f193505050501580156111ad573d6000803e3d6000fd5b508060020160009054906101000a900473ffffffffffffffffffffffffffffffffffffffff1673ffffffffffffffffffffffffffffffffffffffff168160010160009054906101000a900473ffffffffffffffffffffffffffffffffffffffff1673ffffffffffffffffffffffffffffffffffffffff16837f6daa5ba7ed205a76f0ed5e2548931642771a1c636373bfd02556d010e8bdaa7684600301856005015460405180806020018381526020018281038252848181546001816001161561010002031660029004815260200191508054600181600116156101000203166002900480156112de5780601f106112b3576101008083540402835291602001916112de565b820191906000526020600020905b8154815290600101906020018083116112c157829003601f168201915b5050935050505060405180910390a45050565b600080600160009054906101000a900473ffffffffffffffffffffffffffffffffffffffff1673ffffffffffffffffffffffffffffffffffffffff16148061136357506000611361600160009054906101000a900473ffffffffffffffffffffffffffffffffffffffff16611fcd565b145b15611374576113726000611fd8565b505b600160009054906101000a900473ffffffffffffffffffffffffffffffffffffffff1673ffffffffffffffffffffffffffffffffffffffff166338cc48316040518163ffffffff167c0100000000000000000000000000000000000000000000000000000000028152600401602060405180830381600087803b1580156113fa57600080fd5b505af115801561140e573d6000803e3d6000fd5b505050506040513d602081101561142457600080fd5b810190808051906020019092919050505073ffffffffffffffffffffffffffffffffffffffff16600260009054906101000a900473ffffffffffffffffffffffffffffffffffffffff1673ffffffffffffffffffffffffffffffffffffffff1614151561158d57600160009054906101000a900473ffffffffffffffffffffffffffffffffffffffff1673ffffffffffffffffffffffffffffffffffffffff166338cc48316040518163ffffffff167c0100000000000000000000000000000000000000000000000000000000028152600401602060405180830381600087803b15801561151157600080fd5b505af1158015611525573d6000803e3d6000fd5b505050506040513d602081101561153b57600080fd5b8101908080519060200190929190505050600260006101000a81548173ffffffffffffffffffffffffffffffffffffffff021916908373ffffffffffffffffffffffffffffffffffffffff1602179055505b600260009054906101000a900473ffffffffffffffffffffffffffffffffffffffff1673ffffffffffffffffffffffffffffffffffffffff1663c281d19e6040518163ffffffff167c0100000000000000000000000000000000000000000000000000000000028152600401602060405180830381600087803b15801561161357600080fd5b505af1158015611627573d6000803e3d6000fd5b505050506040513d602081101561163d57600080fd5b8101908080519060200190929190505050905090565b600080600160009054906101000a900473ffffffffffffffffffffffffffffffffffffffff1673ffffffffffffffffffffffffffffffffffffffff1614806116c5575060006116c3600160009054906101000a900473ffffffffffffffffffffffffffffffffffffffff16611fcd565b145b156116d6576116d46000611fd8565b505b600160009054906101000a900473ffffffffffffffffffffffffffffffffffffffff1673ffffffffffffffffffffffffffffffffffffffff166338cc48316040518163ffffffff167c0100000000000000000000000000000000000000000000000000000000028152600401602060405180830381600087803b15801561175c57600080fd5b505af1158015611770573d6000803e3d6000fd5b505050506040513d602081101561178657600080fd5b810190808051906020019092919050505073ffffffffffffffffffffffffffffffffffffffff16600260009054906101000a900473ffffffffffffffffffffffffffffffffffffffff1673ffffffffffffffffffffffffffffffffffffffff161415156118ef57600160009054906101000a900473ffffffffffffffffffffffffffffffffffffffff1673ffffffffffffffffffffffffffffffffffffffff166338cc48316040518163ffffffff167c0100000000000000000000000000000000000000000000000000000000028152600401602060405180830381600087803b15801561187357600080fd5b505af1158015611887573d6000803e3d6000fd5b505050506040513d602081101561189d57600080fd5b8101908080519060200190929190505050600260006101000a81548173ffffffffffffffffffffffffffffffffffffffff021916908373ffffffffffffffffffffffffffffffffffffffff1602179055505b600260009054906101000a900473ffffffffffffffffffffffffffffffffffffffff1673ffffffffffffffffffffffffffffffffffffffff1663524f3889836040518263ffffffff167c01000000000000000000000000000000000000000000000000000000000281526004018080602001828103825283818151815260200191508051906020019080838360005b8381101561199957808201518184015260208101905061197e565b50505050905090810190601f1680156119c65780820380516001836020036101000a031916815260200191505b5092505050602060405180830381600087803b1580156119e557600080fd5b505af11580156119f9573d6000803e3d6000fd5b505050506040513d6020811015611a0f57600080fd5b81019080805190602001909291905050509050919050565b6000806000600160009054906101000a900473ffffffffffffffffffffffffffffffffffffffff1673ffffffffffffffffffffffffffffffffffffffff161480611a9b57506000611a99600160009054906101000a900473ffffffffffffffffffffffffffffffffffffffff16611fcd565b145b15611aac57611aaa6000611fd8565b505b600160009054906101000a900473ffffffffffffffffffffffffffffffffffffffff1673ffffffffffffffffffffffffffffffffffffffff166338cc48316040518163ffffffff167c0100000000000000000000000000000000000000000000000000000000028152600401602060405180830381600087803b158015611b3257600080fd5b505af1158015611b46573d6000803e3d6000fd5b505050506040513d6020811015611b5c57600080fd5b810190808051906020019092919050505073ffffffffffffffffffffffffffffffffffffffff16600260009054906101000a900473ffffffffffffffffffffffffffffffffffffffff1673ffffffffffffffffffffffffffffffffffffffff16141515611cc557600160009054906101000a900473ffffffffffffffffffffffffffffffffffffffff1673ffffffffffffffffffffffffffffffffffffffff166338cc48316040518163ffffffff167c0100000000000000000000000000000000000000000000000000000000028152600401602060405180830381600087803b158015611c4957600080fd5b505af1158015611c5d573d6000803e3d6000fd5b505050506040513d6020811015611c7357600080fd5b8101908080519060200190929190505050600260006101000a81548173ffffffffffffffffffffffffffffffffffffffff021916908373ffffffffffffffffffffffffffffffffffffffff1602179055505b600260009054906101000a900473ffffffffffffffffffffffffffffffffffffffff1673ffffffffffffffffffffffffffffffffffffffff1663524f3889856040518263ffffffff167c01000000000000000000000000000000000000000000000000000000000281526004018080602001828103825283818151815260200191508051906020019080838360005b83811015611d6f578082015181840152602081019050611d54565b50505050905090810190601f168015611d9c5780820380516001836020036101000a031916815260200191505b5092505050602060405180830381600087803b158015611dbb57600080fd5b505af1158015611dcf573d6000803e3d6000fd5b505050506040513d6020811015611de557600080fd5b8101908080519060200190929190505050905062030d403a02670de0b6b3a764000001811115611e1b5760006001029150611fc6565b600260009054906101000a900473ffffffffffffffffffffffffffffffffffffffff1673ffffffffffffffffffffffffffffffffffffffff1663adf59f9982600087876040518563ffffffff167c0100000000000000000000000000000000000000000000000000000000028152600401808481526020018060200180602001838103835285818151815260200191508051906020019080838360005b83811015611ed3578082015181840152602081019050611eb8565b50505050905090810190601f168015611f005780820380516001836020036101000a031916815260200191505b50838103825284818151815260200191508051906020019080838360005b83811015611f39578082015181840152602081019050611f1e565b50505050905090810190601f168015611f665780820380516001836020036101000a031916815260200191505b50955050505050506020604051808303818588803b158015611f8757600080fd5b505af1158015611f9b573d6000803e3d6000fd5b50505050506040513d6020811015611fb257600080fd5b810190808051906020019092919050505091505b5092915050565b6000813b9050919050565b6000611fe2611fe9565b9050919050565b600080612009731d3b2638a7cc9f2cb3d298a3da7a90b67e5506ed611fcd565b11156120ab57731d3b2638a7cc9f2cb3d298a3da7a90b67e5506ed600160006101000a81548173ffffffffffffffffffffffffffffffffffffffff021916908373ffffffffffffffffffffffffffffffffffffffff1602179055506120a26040805190810160405280600b81526020017f6574685f6d61696e6e657400000000000000000000000000000000000000000081525061247f565b6001905061247c565b60006120ca73c03a2615d5efaf5f49f60b7bb6583eaec212fdf1611fcd565b111561216c5773c03a2615d5efaf5f49f60b7bb6583eaec212fdf1600160006101000a81548173ffffffffffffffffffffffffffffffffffffffff021916908373ffffffffffffffffffffffffffffffffffffffff1602179055506121636040805190810160405280600c81526020017f6574685f726f707374656e33000000000000000000000000000000000000000081525061247f565b6001905061247c565b600061218b73b7a07bcf2ba2f2703b24c0691b5278999c59ac7e611fcd565b111561222d5773b7a07bcf2ba2f2703b24c0691b5278999c59ac7e600160006101000a81548173ffffffffffffffffffffffffffffffffffffffff021916908373ffffffffffffffffffffffffffffffffffffffff1602179055506122246040805190810160405280600981526020017f6574685f6b6f76616e000000000000000000000000000000000000000000000081525061247f565b6001905061247c565b600061224c73146500cfd35b22e4a392fe0adc06de1a1368ed48611fcd565b11156122ee5773146500cfd35b22e4a392fe0adc06de1a1368ed48600160006101000a81548173ffffffffffffffffffffffffffffffffffffffff021916908373ffffffffffffffffffffffffffffffffffffffff1602179055506122e56040805190810160405280600b81526020017f6574685f72696e6b65627900000000000000000000000000000000000000000081525061247f565b6001905061247c565b600061230d736f485c8bf6fc43ea212e93bbf8ce046c7f1cb475611fcd565b111561237157736f485c8bf6fc43ea212e93bbf8ce046c7f1cb475600160006101000a81548173ffffffffffffffffffffffffffffffffffffffff021916908373ffffffffffffffffffffffffffffffffffffffff1602179055506001905061247c565b60006123907320e12a1f859b3feae5fb2a0a32c18f5a65555bbf611fcd565b11156123f4577320e12a1f859b3feae5fb2a0a32c18f5a65555bbf600160006101000a81548173ffffffffffffffffffffffffffffffffffffffff021916908373ffffffffffffffffffffffffffffffffffffffff1602179055506001905061247c565b60006124137351efaf4c8b3c9afbd5ab9f4bbc82784ab6ef8faa611fcd565b1115612477577351efaf4c8b3c9afbd5ab9f4bbc82784ab6ef8faa600160006101000a81548173ffffffffffffffffffffffffffffffffffffffff021916908373ffffffffffffffffffffffffffffffffffffffff1602179055506001905061247c565b600090505b90565b8060039080519060200190612495929190612499565b5050565b828054600181600116156101000203166002900490600052602060002090601f016020900481019282601f106124da57805160ff1916838001178555612508565b82800160010185558215612508579182015b828111156125075782518255916020019190600101906124ec565b5b5090506125159190612599565b5090565b828054600181600116156101000203166002900490600052602060002090601f016020900481019282601f1061255a57805160ff1916838001178555612588565b82800160010185558215612588579182015b8281111561258757825182559160200191906001019061256c565b5b5090506125959190612599565b5090565b6125bb91905b808211156125b757600081600090555060010161259f565b5090565b905600a165627a7a72305820170554fee5200394aa6092ac2a29cbde093609673ad0563c1ecef354d1f654670029",
  "source": "pragma solidity ^0.4.18;\n\nimport \"./Owned.sol\";\nimport \"installed_contracts/oraclize-api/contracts/usingOraclize.sol\";\n\ncontract MarketPlace is Owned,usingOraclize {\n  \n  // Conversaion rate from Oracle API\n  string public ETHUSD;\n\n\n  event LogConstructorInitiated(string nextStep);\n  event LogPriceUpdated(string price);\n  event LogNewOraclizeQuery(string description);\n\n  function __callback(bytes32 id, string result, bytes proof)\n    public {\n        require(msg.sender == oraclize_cbAddress());\n\n        ETHUSD = result;\n        emit LogPriceUpdated(ETHUSD);\n        updatePrice();\n    }\n\n  \n    function MarketPlace() payable public{\n\n      //change here with the ethereum-bridge generated in your local\n     OAR = OraclizeAddrResolverI(0x103C6CAB3CC9F2C0Eb9C46C179835fD5C607395b);\n      oraclize_setProof(proofType_TLSNotary | proofStorage_IPFS);\n\n      updatePrice();\n    }\n\n    // Fallback function\n    function()\n    public{\n        revert();\n    }\n   function updatePrice() public payable  {\n       if (oraclize_getPrice(\"URL\") > address(this).balance) {\n           emit LogNewOraclizeQuery(\"Oraclize query was NOT sent, please add some ETH to cover for the query fee\");\n       } else {\n           emit LogNewOraclizeQuery(\"Oraclize query was sent, standing by for the answer..\");\n           oraclize_query(\"URL\", \"json(https://api.gdax.com/products/ETH-USD/ticker).price\");\n       }\n   }\n\n\n\n  struct Item {\n    uint id;\n    address seller;\n    address buyer;\n    string name;\n    string description;\n    uint256 price;\n  }\n\n  // Items List\n  mapping(uint => Item) public items;\n  uint itemCounter;\n\n\n  event sellItemEvent(\n    uint indexed _id,\n    address indexed _seller,\n    string _name,\n    uint256 _price);\n\n  event buyItemEvent(\n    uint indexed _id,\n    address indexed _seller,\n    address indexed _buyer,\n    string _name,\n    uint256 _price);\n\n\n\n\n  // fetch the number of items in the contract\n  function getNumberOfItems() public constant returns (uint) {\n    return itemCounter;\n  }\n\n  // fetch and returns all items IDs available for sale\n  function getItemsForSale() public constant returns (uint[]) {\n    // check at least one item\n    if(itemCounter == 0) {\n      return new uint[](0);\n    }\n\n    uint[] memory itemIds = new uint[](itemCounter);\n\n    uint numberOfItemsForSale = 0;\n    \n    for (uint i = 1; i <= itemCounter; i++) {\n      // retrive the ID of items not sold yet\n      if (items[i].buyer == 0x0) {\n        itemIds[numberOfItemsForSale] = items[i].id;\n        numberOfItemsForSale++;\n      }\n    }\n\n    \n    uint[] memory filteredItems = new uint[](numberOfItemsForSale);\n    for (uint j = 0; j < numberOfItemsForSale; j++) {\n      filteredItems[j] = itemIds[j];\n    }\n    return (filteredItems);\n  }\n\n\n  //sell an item\n  function sellItem(string _name, string _description, uint256 _price) public {\n    // increase counter of items\n    itemCounter++;\n\n    //save this item to items mapping\n    items[itemCounter] = Item(\n        itemCounter,\n        msg.sender,\n        0x0,\n        _name,\n        _description,\n        _price\n      );\n\n    // trigger the event\n    emit sellItemEvent(itemCounter, msg.sender, _name, _price);\n  }\n  // buy an Item\n  function buyItem(uint _id) payable public {\n    //at least on item\n    require(itemCounter > 0);\n\n    // check if the item exist\n    require(_id > 0 && _id <= itemCounter);\n\n    \n    Item storage item = items[_id];\n\n    // check of the item not been sold\n    require(item.buyer == 0x0);\n\n    // the sellet cannot buy his item\n    require(item.seller != msg.sender);\n\n    // check the value of ether sent to the item price\n    require(item.price == msg.value);\n\n    // store buyer address\n    item.buyer = msg.sender;\n\n    // send the money to the seller\n    item.seller.transfer(msg.value);\n\n    // raise the event\n    emit buyItemEvent(_id, item.seller, item.buyer, item.name, item.price);\n  }\n\n\n  function kill() onlyOwner public {\n    selfdestruct(owner);\n  }\n}\n",
  "sourcePath": "/Users/ericxxp/Desktop/Projects/JomjomaMarketPlace/contracts/MarketPlace.sol",
  "compiler": {
    "name": "solc",
    "version": "0.4.24+commit.e67f0147.Emscripten.clang"
  },
  "schemaVersion": "2.0.1",
  "updatedAt": "2018-08-27T21:53:38.721Z"
}