{
  "contractName": "MarketPlace",
  "abi": [
    {
      "constant": false,
      "inputs": [],
      "name": "unpause",
      "outputs": [],
      "payable": false,
      "stateMutability": "nonpayable",
      "type": "function"
    },
    {
      "constant": true,
      "inputs": [],
      "name": "paused",
      "outputs": [
        {
          "name": "",
          "type": "bool"
        }
      ],
      "payable": false,
      "stateMutability": "view",
      "type": "function"
    },
    {
      "constant": true,
      "inputs": [],
      "name": "ETHUSD",
      "outputs": [
        {
          "name": "",
          "type": "string"
        }
      ],
      "payable": false,
      "stateMutability": "view",
      "type": "function"
    },
    {
      "constant": false,
      "inputs": [],
      "name": "pause",
      "outputs": [],
      "payable": false,
      "stateMutability": "nonpayable",
      "type": "function"
    },
    {
      "constant": true,
      "inputs": [],
      "name": "owner",
      "outputs": [
        {
          "name": "",
          "type": "address"
        }
      ],
      "payable": false,
      "stateMutability": "view",
      "type": "function"
    },
    {
      "constant": true,
      "inputs": [
        {
          "name": "",
          "type": "uint256"
        }
      ],
      "name": "items",
      "outputs": [
        {
          "name": "id",
          "type": "uint256"
        },
        {
          "name": "seller",
          "type": "address"
        },
        {
          "name": "buyer",
          "type": "address"
        },
        {
          "name": "name",
          "type": "string"
        },
        {
          "name": "description",
          "type": "string"
        },
        {
          "name": "price",
          "type": "uint256"
        }
      ],
      "payable": false,
      "stateMutability": "view",
      "type": "function"
    },
    {
      "constant": false,
      "inputs": [
        {
          "name": "newOwner",
          "type": "address"
        }
      ],
      "name": "transferOwnership",
      "outputs": [],
      "payable": false,
      "stateMutability": "nonpayable",
      "type": "function"
    },
    {
      "inputs": [],
      "payable": true,
      "stateMutability": "payable",
      "type": "constructor"
    },
    {
      "payable": true,
      "stateMutability": "payable",
      "type": "fallback"
    },
    {
      "anonymous": false,
      "inputs": [
        {
          "indexed": true,
          "name": "_id",
          "type": "uint256"
        },
        {
          "indexed": true,
          "name": "_seller",
          "type": "address"
        },
        {
          "indexed": false,
          "name": "_name",
          "type": "string"
        },
        {
          "indexed": false,
          "name": "_price",
          "type": "uint256"
        }
      ],
      "name": "sellItemEvent",
      "type": "event"
    },
    {
      "anonymous": false,
      "inputs": [
        {
          "indexed": true,
          "name": "_id",
          "type": "uint256"
        },
        {
          "indexed": true,
          "name": "_seller",
          "type": "address"
        },
        {
          "indexed": true,
          "name": "_buyer",
          "type": "address"
        },
        {
          "indexed": false,
          "name": "_name",
          "type": "string"
        },
        {
          "indexed": false,
          "name": "_price",
          "type": "uint256"
        }
      ],
      "name": "buyItemEvent",
      "type": "event"
    },
    {
      "anonymous": false,
      "inputs": [
        {
          "indexed": false,
          "name": "price",
          "type": "string"
        }
      ],
      "name": "LogPriceUpdated",
      "type": "event"
    },
    {
      "anonymous": false,
      "inputs": [
        {
          "indexed": false,
          "name": "description",
          "type": "string"
        }
      ],
      "name": "LogNewOraclizeQuery",
      "type": "event"
    },
    {
      "anonymous": false,
      "inputs": [],
      "name": "Pause",
      "type": "event"
    },
    {
      "anonymous": false,
      "inputs": [],
      "name": "Unpause",
      "type": "event"
    },
    {
      "anonymous": false,
      "inputs": [
        {
          "indexed": true,
          "name": "previousOwner",
          "type": "address"
        },
        {
          "indexed": true,
          "name": "newOwner",
          "type": "address"
        }
      ],
      "name": "OwnershipTransferred",
      "type": "event"
    },
    {
      "constant": false,
      "inputs": [
        {
          "name": "myid",
          "type": "bytes32"
        },
        {
          "name": "result",
          "type": "string"
        }
      ],
      "name": "__callback",
      "outputs": [],
      "payable": false,
      "stateMutability": "nonpayable",
      "type": "function"
    },
    {
      "constant": false,
      "inputs": [
        {
          "name": "id",
          "type": "bytes32"
        },
        {
          "name": "result",
          "type": "string"
        },
        {
          "name": "proof",
          "type": "bytes"
        }
      ],
      "name": "__callback",
      "outputs": [],
      "payable": false,
      "stateMutability": "nonpayable",
      "type": "function"
    },
    {
      "constant": false,
      "inputs": [],
      "name": "updatePrice",
      "outputs": [],
      "payable": true,
      "stateMutability": "payable",
      "type": "function"
    },
    {
      "constant": true,
      "inputs": [],
      "name": "getNumberOfItems",
      "outputs": [
        {
          "name": "",
          "type": "uint256"
        }
      ],
      "payable": false,
      "stateMutability": "view",
      "type": "function"
    },
    {
      "constant": true,
      "inputs": [],
      "name": "getItemsForSale",
      "outputs": [
        {
          "name": "",
          "type": "uint256[]"
        }
      ],
      "payable": false,
      "stateMutability": "view",
      "type": "function"
    },
    {
      "constant": false,
      "inputs": [
        {
          "name": "_name",
          "type": "string"
        },
        {
          "name": "_description",
          "type": "string"
        },
        {
          "name": "_price",
          "type": "uint256"
        }
      ],
      "name": "sellItem",
      "outputs": [],
      "payable": false,
      "stateMutability": "nonpayable",
      "type": "function"
    },
    {
      "constant": false,
      "inputs": [
        {
          "name": "_id",
          "type": "uint256"
        }
      ],
      "name": "buyItem",
      "outputs": [],
      "payable": true,
      "stateMutability": "payable",
      "type": "function"
    },
    {
      "constant": false,
      "inputs": [],
      "name": "kill",
      "outputs": [],
      "payable": false,
      "stateMutability": "nonpayable",
      "type": "function"
    }
  ],
  "bytecode": "0x60806040526000600660006101000a81548160ff021916908315150217905550336000806101000a81548173ffffffffffffffffffffffffffffffffffffffff021916908373ffffffffffffffffffffffffffffffffffffffff16021790555073b45bcaff097e0ec3492a4c39da3105b693fd9b59600160006101000a81548173ffffffffffffffffffffffffffffffffffffffff021916908373ffffffffffffffffffffffffffffffffffffffff1602179055506200011660017f01000000000000000000000000000000000000000000000000000000000000000260107f0100000000000000000000000000000000000000000000000000000000000000021762000135640100000000026401000000009004565b6200012f620004ed640100000000026401000000009004565b62001793565b6000600160009054906101000a900473ffffffffffffffffffffffffffffffffffffffff1673ffffffffffffffffffffffffffffffffffffffff161480620001b857506000620001b6600160009054906101000a900473ffffffffffffffffffffffffffffffffffffffff1662000755640100000000026401000000009004565b145b15620001db57620001d9600062000760640100000000026401000000009004565b505b600160009054906101000a900473ffffffffffffffffffffffffffffffffffffffff1673ffffffffffffffffffffffffffffffffffffffff166338cc48316040518163ffffffff167c0100000000000000000000000000000000000000000000000000000000028152600401602060405180830381600087803b1580156200026257600080fd5b505af115801562000277573d6000803e3d6000fd5b505050506040513d60208110156200028e57600080fd5b810190808051906020019092919050505073ffffffffffffffffffffffffffffffffffffffff16600260009054906101000a900473ffffffffffffffffffffffffffffffffffffffff1673ffffffffffffffffffffffffffffffffffffffff16141515620003fb57600160009054906101000a900473ffffffffffffffffffffffffffffffffffffffff1673ffffffffffffffffffffffffffffffffffffffff166338cc48316040518163ffffffff167c0100000000000000000000000000000000000000000000000000000000028152600401602060405180830381600087803b1580156200037d57600080fd5b505af115801562000392573d6000803e3d6000fd5b505050506040513d6020811015620003a957600080fd5b8101908080519060200190929190505050600260006101000a81548173ffffffffffffffffffffffffffffffffffffffff021916908373ffffffffffffffffffffffffffffffffffffffff1602179055505b600260009054906101000a900473ffffffffffffffffffffffffffffffffffffffff1673ffffffffffffffffffffffffffffffffffffffff1663688dcfd7826040518263ffffffff167c010000000000000000000000000000000000000000000000000000000002815260040180827effffffffffffffffffffffffffffffffffffffffffffffffffffffffffffff19167effffffffffffffffffffffffffffffffffffffffffffffffffffffffffffff19168152602001915050600060405180830381600087803b158015620004d157600080fd5b505af1158015620004e6573d6000803e3d6000fd5b5050505050565b3073ffffffffffffffffffffffffffffffffffffffff1631620005546040805190810160405280600381526020017f55524c000000000000000000000000000000000000000000000000000000000081525062000782640100000000026401000000009004565b111562000615577f621c2856e3b87f81235f8ac8a22bbb40a0142961960710d00b2b6c380902b57e60405180806020018281038252604b8152602001807f4f7261636c697a6520717565727920776173204e4f542073656e742c20706c6581526020017f6173652061646420736f6d652045544820746f20636f76657220666f7220746881526020017f652071756572792066656500000000000000000000000000000000000000000081525060600191505060405180910390a162000753565b7f621c2856e3b87f81235f8ac8a22bbb40a0142961960710d00b2b6c380902b57e6040518080602001828103825260358152602001807f4f7261636c697a65207175657279207761732073656e742c207374616e64696e81526020017f6720627920666f722074686520616e737765722e2e000000000000000000000081525060400191505060405180910390a162000751600a6040805190810160405280600381526020017f55524c0000000000000000000000000000000000000000000000000000000000815250606060405190810160405280603881526020017f6a736f6e2868747470733a2f2f6170692e676461782e636f6d2f70726f64756381526020017f74732f4554482d5553442f7469636b6572292e7072696365000000000000000081525062000b87640100000000026401000000009004565b505b565b6000813b9050919050565b60006200077b62001169640100000000026401000000009004565b9050919050565b600080600160009054906101000a900473ffffffffffffffffffffffffffffffffffffffff1673ffffffffffffffffffffffffffffffffffffffff161480620008065750600062000804600160009054906101000a900473ffffffffffffffffffffffffffffffffffffffff1662000755640100000000026401000000009004565b145b15620008295762000827600062000760640100000000026401000000009004565b505b600160009054906101000a900473ffffffffffffffffffffffffffffffffffffffff1673ffffffffffffffffffffffffffffffffffffffff166338cc48316040518163ffffffff167c0100000000000000000000000000000000000000000000000000000000028152600401602060405180830381600087803b158015620008b057600080fd5b505af1158015620008c5573d6000803e3d6000fd5b505050506040513d6020811015620008dc57600080fd5b810190808051906020019092919050505073ffffffffffffffffffffffffffffffffffffffff16600260009054906101000a900473ffffffffffffffffffffffffffffffffffffffff1673ffffffffffffffffffffffffffffffffffffffff1614151562000a4957600160009054906101000a900473ffffffffffffffffffffffffffffffffffffffff1673ffffffffffffffffffffffffffffffffffffffff166338cc48316040518163ffffffff167c0100000000000000000000000000000000000000000000000000000000028152600401602060405180830381600087803b158015620009cb57600080fd5b505af1158015620009e0573d6000803e3d6000fd5b505050506040513d6020811015620009f757600080fd5b8101908080519060200190929190505050600260006101000a81548173ffffffffffffffffffffffffffffffffffffffff021916908373ffffffffffffffffffffffffffffffffffffffff1602179055505b600260009054906101000a900473ffffffffffffffffffffffffffffffffffffffff1673ffffffffffffffffffffffffffffffffffffffff1663524f3889836040518263ffffffff167c01000000000000000000000000000000000000000000000000000000000281526004018080602001828103825283818151815260200191508051906020019080838360005b8381101562000af557808201518184015260208101905062000ad8565b50505050905090810190601f16801562000b235780820380516001836020036101000a031916815260200191505b5092505050602060405180830381600087803b15801562000b4357600080fd5b505af115801562000b58573d6000803e3d6000fd5b505050506040513d602081101562000b6f57600080fd5b81019080805190602001909291905050509050919050565b6000806000600160009054906101000a900473ffffffffffffffffffffffffffffffffffffffff1673ffffffffffffffffffffffffffffffffffffffff16148062000c0d5750600062000c0b600160009054906101000a900473ffffffffffffffffffffffffffffffffffffffff1662000755640100000000026401000000009004565b145b1562000c305762000c2e600062000760640100000000026401000000009004565b505b600160009054906101000a900473ffffffffffffffffffffffffffffffffffffffff1673ffffffffffffffffffffffffffffffffffffffff166338cc48316040518163ffffffff167c0100000000000000000000000000000000000000000000000000000000028152600401602060405180830381600087803b15801562000cb757600080fd5b505af115801562000ccc573d6000803e3d6000fd5b505050506040513d602081101562000ce357600080fd5b810190808051906020019092919050505073ffffffffffffffffffffffffffffffffffffffff16600260009054906101000a900473ffffffffffffffffffffffffffffffffffffffff1673ffffffffffffffffffffffffffffffffffffffff1614151562000e5057600160009054906101000a900473ffffffffffffffffffffffffffffffffffffffff1673ffffffffffffffffffffffffffffffffffffffff166338cc48316040518163ffffffff167c0100000000000000000000000000000000000000000000000000000000028152600401602060405180830381600087803b15801562000dd257600080fd5b505af115801562000de7573d6000803e3d6000fd5b505050506040513d602081101562000dfe57600080fd5b8101908080519060200190929190505050600260006101000a81548173ffffffffffffffffffffffffffffffffffffffff021916908373ffffffffffffffffffffffffffffffffffffffff1602179055505b600260009054906101000a900473ffffffffffffffffffffffffffffffffffffffff1673ffffffffffffffffffffffffffffffffffffffff1663524f3889856040518263ffffffff167c01000000000000000000000000000000000000000000000000000000000281526004018080602001828103825283818151815260200191508051906020019080838360005b8381101562000efc57808201518184015260208101905062000edf565b50505050905090810190601f16801562000f2a5780820380516001836020036101000a031916815260200191505b5092505050602060405180830381600087803b15801562000f4a57600080fd5b505af115801562000f5f573d6000803e3d6000fd5b505050506040513d602081101562000f7657600080fd5b8101908080519060200190929190505050905062030d403a02670de0b6b3a76400000181111562000fae576000600102915062001161565b600260009054906101000a900473ffffffffffffffffffffffffffffffffffffffff1673ffffffffffffffffffffffffffffffffffffffff1663adf59f99828787876040518563ffffffff167c0100000000000000000000000000000000000000000000000000000000028152600401808481526020018060200180602001838103835285818151815260200191508051906020019080838360005b83811015620010675780820151818401526020810190506200104a565b50505050905090810190601f168015620010955780820380516001836020036101000a031916815260200191505b50838103825284818151815260200191508051906020019080838360005b83811015620010d0578082015181840152602081019050620010b3565b50505050905090810190601f168015620010fe5780820380516001836020036101000a031916815260200191505b50955050505050506020604051808303818588803b1580156200112057600080fd5b505af115801562001135573d6000803e3d6000fd5b50505050506040513d60208110156200114d57600080fd5b810190808051906020019092919050505091505b509392505050565b6000806200119a731d3b2638a7cc9f2cb3d298a3da7a90b67e5506ed62000755640100000000026401000000009004565b11156200124f57731d3b2638a7cc9f2cb3d298a3da7a90b67e5506ed600160006101000a81548173ffffffffffffffffffffffffffffffffffffffff021916908373ffffffffffffffffffffffffffffffffffffffff160217905550620012456040805190810160405280600b81526020017f6574685f6d61696e6e6574000000000000000000000000000000000000000000815250620016c8640100000000026401000000009004565b60019050620016c5565b60006200127f73c03a2615d5efaf5f49f60b7bb6583eaec212fdf162000755640100000000026401000000009004565b1115620013345773c03a2615d5efaf5f49f60b7bb6583eaec212fdf1600160006101000a81548173ffffffffffffffffffffffffffffffffffffffff021916908373ffffffffffffffffffffffffffffffffffffffff1602179055506200132a6040805190810160405280600c81526020017f6574685f726f707374656e330000000000000000000000000000000000000000815250620016c8640100000000026401000000009004565b60019050620016c5565b60006200136473b7a07bcf2ba2f2703b24c0691b5278999c59ac7e62000755640100000000026401000000009004565b1115620014195773b7a07bcf2ba2f2703b24c0691b5278999c59ac7e600160006101000a81548173ffffffffffffffffffffffffffffffffffffffff021916908373ffffffffffffffffffffffffffffffffffffffff1602179055506200140f6040805190810160405280600981526020017f6574685f6b6f76616e0000000000000000000000000000000000000000000000815250620016c8640100000000026401000000009004565b60019050620016c5565b60006200144973146500cfd35b22e4a392fe0adc06de1a1368ed4862000755640100000000026401000000009004565b1115620014fe5773146500cfd35b22e4a392fe0adc06de1a1368ed48600160006101000a81548173ffffffffffffffffffffffffffffffffffffffff021916908373ffffffffffffffffffffffffffffffffffffffff160217905550620014f46040805190810160405280600b81526020017f6574685f72696e6b656279000000000000000000000000000000000000000000815250620016c8640100000000026401000000009004565b60019050620016c5565b60006200152e736f485c8bf6fc43ea212e93bbf8ce046c7f1cb47562000755640100000000026401000000009004565b11156200159457736f485c8bf6fc43ea212e93bbf8ce046c7f1cb475600160006101000a81548173ffffffffffffffffffffffffffffffffffffffff021916908373ffffffffffffffffffffffffffffffffffffffff16021790555060019050620016c5565b6000620015c47320e12a1f859b3feae5fb2a0a32c18f5a65555bbf62000755640100000000026401000000009004565b11156200162a577320e12a1f859b3feae5fb2a0a32c18f5a65555bbf600160006101000a81548173ffffffffffffffffffffffffffffffffffffffff021916908373ffffffffffffffffffffffffffffffffffffffff16021790555060019050620016c5565b60006200165a7351efaf4c8b3c9afbd5ab9f4bbc82784ab6ef8faa62000755640100000000026401000000009004565b1115620016c0577351efaf4c8b3c9afbd5ab9f4bbc82784ab6ef8faa600160006101000a81548173ffffffffffffffffffffffffffffffffffffffff021916908373ffffffffffffffffffffffffffffffffffffffff16021790555060019050620016c5565b600090505b90565b8060039080519060200190620016e0929190620016e4565b5050565b828054600181600116156101000203166002900490600052602060002090601f016020900481019282601f106200172757805160ff191683800117855562001758565b8280016001018555821562001758579182015b82811115620017575782518255916020019190600101906200173a565b5b5090506200176791906200176b565b5090565b6200179091905b808211156200178c57600081600090555060010162001772565b5090565b90565b612a4f80620017a36000396000f3006080604052600436106100db576000357c0100000000000000000000000000000000000000000000000000000000900463ffffffff168063064ddd04146100dd57806327dc297e1461014957806338bbfa50146101c05780633f4ba83a1461027d57806341c0e1b5146102945780635c975abb146102ab5780635f1305ef146102da578063673a7e2814610393578063730ef2691461039d57806373db0844146103c85780638456cb59146104585780638da5cb5b1461046f578063bfb231d2146104c6578063e7fb74c71461064c578063f2fde38b1461066c575b005b3480156100e957600080fd5b506100f26106af565b6040518080602001828103825283818151815260200191508051906020019060200280838360005b8381101561013557808201518184015260208101905061011a565b505050509050019250505060405180910390f35b34801561015557600080fd5b506101be6004803603810190808035600019169060200190929190803590602001908201803590602001908080601f016020809104026020016040519081016040528093929190818152602001838380828437820191505050505050919291929050505061086d565b005b3480156101cc57600080fd5b5061027b6004803603810190808035600019169060200190929190803590602001908201803590602001908080601f0160208091040260200160405190810160405280939291908181526020018383808284378201915050505050509192919290803590602001908201803590602001908080601f01602080910402602001604051908101604052809392919081815260200183838082843782019150505050505091929192905050506108b0565b005b34801561028957600080fd5b506102926109cf565b005b3480156102a057600080fd5b506102a9610a8e565b005b3480156102b757600080fd5b506102c0610b23565b604051808215151515815260200191505060405180910390f35b3480156102e657600080fd5b50610391600480360381019080803590602001908201803590602001908080601f0160208091040260200160405190810160405280939291908181526020018383808284378201915050505050509192919290803590602001908201803590602001908080601f016020809104026020016040519081016040528093929190818152602001838380828437820191505050505050919291929080359060200190929190505050610b36565b005b61039b610d78565b005b3480156103a957600080fd5b506103b2610fbc565b6040518082815260200191505060405180910390f35b3480156103d457600080fd5b506103dd610fc6565b6040518080602001828103825283818151815260200191508051906020019080838360005b8381101561041d578082015181840152602081019050610402565b50505050905090810190601f16801561044a5780820380516001836020036101000a031916815260200191505b509250505060405180910390f35b34801561046457600080fd5b5061046d611064565b005b34801561047b57600080fd5b50610484611124565b604051808273ffffffffffffffffffffffffffffffffffffffff1673ffffffffffffffffffffffffffffffffffffffff16815260200191505060405180910390f35b3480156104d257600080fd5b506104f160048036038101908080359060200190929190505050611149565b604051808781526020018673ffffffffffffffffffffffffffffffffffffffff1673ffffffffffffffffffffffffffffffffffffffff1681526020018573ffffffffffffffffffffffffffffffffffffffff1673ffffffffffffffffffffffffffffffffffffffff1681526020018060200180602001848152602001838103835286818151815260200191508051906020019080838360005b838110156105a557808201518184015260208101905061058a565b50505050905090810190601f1680156105d25780820380516001836020036101000a031916815260200191505b50838103825285818151815260200191508051906020019080838360005b8381101561060b5780820151818401526020810190506105f0565b50505050905090810190601f1680156106385780820380516001836020036101000a031916815260200191505b509850505050505050505060405180910390f35b61066a600480360381019080803590602001909291905050506112f5565b005b34801561067857600080fd5b506106ad600480360381019080803573ffffffffffffffffffffffffffffffffffffffff169060200190929190505050611601565b005b606080600080606060008060085414156106fb5760006040519080825280602002602001820160405280156106f35781602001602082028038833980820191505090505b509550610865565b60085460405190808252806020026020018201604052801561072c5781602001602082028038833980820191505090505b50945060009350600192505b600854831115156107e15760006009600085815260200190815260200160002060020160009054906101000a900473ffffffffffffffffffffffffffffffffffffffff1673ffffffffffffffffffffffffffffffffffffffff1614156107d457600960008481526020019081526020016000206000015485858151811015156107bd57fe5b906020019060200201818152505083806001019450505b8280600101935050610738565b836040519080825280602002602001820160405280156108105781602001602082028038833980820191505090505b509150600090505b8381101561086157848181518110151561082e57fe5b90602001906020020151828281518110151561084657fe5b90602001906020020181815250508080600101915050610818565b8195505b505050505090565b6108ac828260006040519080825280601f01601f1916602001820160405280156108a65781602001602082028038833980820191505090505b506108b0565b5050565b6108b8611756565b73ffffffffffffffffffffffffffffffffffffffff163373ffffffffffffffffffffffffffffffffffffffff161415156108f157600080fd5b81600790805190602001906109079291906128fe565b507f71f1a5645e51a2da828ffcf79cc17da88eb25e1bca8b9dced23210847a4769c1600760405180806020018281038252838181546001816001161561010002031660029004815260200191508054600181600116156101000203166002900480156109b45780601f10610989576101008083540402835291602001916109b4565b820191906000526020600020905b81548152906001019060200180831161099757829003601f168201915b50509250505060405180910390a16109ca610d78565b505050565b6000809054906101000a900473ffffffffffffffffffffffffffffffffffffffff1673ffffffffffffffffffffffffffffffffffffffff163373ffffffffffffffffffffffffffffffffffffffff16141515610a2a57600080fd5b600660009054906101000a900460ff161515610a4557600080fd5b6000600660006101000a81548160ff0219169083151502179055507f7805862f689e2f13df9f062ff482ad3ad112aca9e0847911ed832e158c525b3360405160405180910390a1565b6000809054906101000a900473ffffffffffffffffffffffffffffffffffffffff1673ffffffffffffffffffffffffffffffffffffffff163373ffffffffffffffffffffffffffffffffffffffff16141515610ae957600080fd5b6000809054906101000a900473ffffffffffffffffffffffffffffffffffffffff1673ffffffffffffffffffffffffffffffffffffffff16ff5b600660009054906101000a900460ff1681565b600660009054906101000a900460ff16151515610b5257600080fd5b60086000815480929190600101919050555060c06040519081016040528060085481526020013373ffffffffffffffffffffffffffffffffffffffff168152602001600073ffffffffffffffffffffffffffffffffffffffff168152602001848152602001838152602001828152506009600060085481526020019081526020016000206000820151816000015560208201518160010160006101000a81548173ffffffffffffffffffffffffffffffffffffffff021916908373ffffffffffffffffffffffffffffffffffffffff16021790555060408201518160020160006101000a81548173ffffffffffffffffffffffffffffffffffffffff021916908373ffffffffffffffffffffffffffffffffffffffff1602179055506060820151816003019080519060200190610c8a92919061297e565b506080820151816004019080519060200190610ca792919061297e565b5060a082015181600501559050503373ffffffffffffffffffffffffffffffffffffffff166008547f4930f96e2b177430c5901b63b19095d5986c564e98769d88b31b49a200b8c54f85846040518080602001838152602001828103825284818151815260200191508051906020019080838360005b83811015610d38578082015181840152602081019050610d1d565b50505050905090810190601f168015610d655780820380516001836020036101000a031916815260200191505b50935050505060405180910390a3505050565b3073ffffffffffffffffffffffffffffffffffffffff1631610dce6040805190810160405280600381526020017f55524c0000000000000000000000000000000000000000000000000000000000815250611ab8565b1115610e8d577f621c2856e3b87f81235f8ac8a22bbb40a0142961960710d00b2b6c380902b57e60405180806020018281038252604b8152602001807f4f7261636c697a6520717565727920776173204e4f542073656e742c20706c6581526020017f6173652061646420736f6d652045544820746f20636f76657220666f7220746881526020017f652071756572792066656500000000000000000000000000000000000000000081525060600191505060405180910390a1610fba565b7f621c2856e3b87f81235f8ac8a22bbb40a0142961960710d00b2b6c380902b57e6040518080602001828103825260358152602001807f4f7261636c697a65207175657279207761732073656e742c207374616e64696e81526020017f6720627920666f722074686520616e737765722e2e000000000000000000000081525060400191505060405180910390a1610fb8600a6040805190810160405280600381526020017f55524c0000000000000000000000000000000000000000000000000000000000815250606060405190810160405280603881526020017f6a736f6e2868747470733a2f2f6170692e676461782e636f6d2f70726f64756381526020017f74732f4554482d5553442f7469636b6572292e70726963650000000000000000815250611e8c565b505b565b6000600854905090565b60078054600181600116156101000203166002900480601f01602080910402602001604051908101604052809291908181526020018280546001816001161561010002031660029004801561105c5780601f106110315761010080835404028352916020019161105c565b820191906000526020600020905b81548152906001019060200180831161103f57829003601f168201915b505050505081565b6000809054906101000a900473ffffffffffffffffffffffffffffffffffffffff1673ffffffffffffffffffffffffffffffffffffffff163373ffffffffffffffffffffffffffffffffffffffff161415156110bf57600080fd5b600660009054906101000a900460ff161515156110db57600080fd5b6001600660006101000a81548160ff0219169083151502179055507f6985a02210a168e66602d3235cb6db0e70f92b3ba4d376a33c0f3d9434bff62560405160405180910390a1565b6000809054906101000a900473ffffffffffffffffffffffffffffffffffffffff1681565b60096020528060005260406000206000915090508060000154908060010160009054906101000a900473ffffffffffffffffffffffffffffffffffffffff16908060020160009054906101000a900473ffffffffffffffffffffffffffffffffffffffff1690806003018054600181600116156101000203166002900480601f0160208091040260200160405190810160405280929190818152602001828054600181600116156101000203166002900480156112475780601f1061121c57610100808354040283529160200191611247565b820191906000526020600020905b81548152906001019060200180831161122a57829003601f168201915b505050505090806004018054600181600116156101000203166002900480601f0160208091040260200160405190810160405280929190818152602001828054600181600116156101000203166002900480156112e55780601f106112ba576101008083540402835291602001916112e5565b820191906000526020600020905b8154815290600101906020018083116112c857829003601f168201915b5050505050908060050154905086565b6000600660009054906101000a900460ff1615151561131357600080fd5b600060085411151561132457600080fd5b60008211801561133657506008548211155b151561134157600080fd5b60096000838152602001908152602001600020905060008160020160009054906101000a900473ffffffffffffffffffffffffffffffffffffffff1673ffffffffffffffffffffffffffffffffffffffff1614151561139f57600080fd5b3373ffffffffffffffffffffffffffffffffffffffff168160010160009054906101000a900473ffffffffffffffffffffffffffffffffffffffff1673ffffffffffffffffffffffffffffffffffffffff16141515156113fe57600080fd5b34816005015414151561141057600080fd5b338160020160006101000a81548173ffffffffffffffffffffffffffffffffffffffff021916908373ffffffffffffffffffffffffffffffffffffffff1602179055508060010160009054906101000a900473ffffffffffffffffffffffffffffffffffffffff1673ffffffffffffffffffffffffffffffffffffffff166108fc349081150290604051600060405180830381858888f193505050501580156114bd573d6000803e3d6000fd5b508060020160009054906101000a900473ffffffffffffffffffffffffffffffffffffffff1673ffffffffffffffffffffffffffffffffffffffff168160010160009054906101000a900473ffffffffffffffffffffffffffffffffffffffff1673ffffffffffffffffffffffffffffffffffffffff16837f6daa5ba7ed205a76f0ed5e2548931642771a1c636373bfd02556d010e8bdaa7684600301856005015460405180806020018381526020018281038252848181546001816001161561010002031660029004815260200191508054600181600116156101000203166002900480156115ee5780601f106115c3576101008083540402835291602001916115ee565b820191906000526020600020905b8154815290600101906020018083116115d157829003601f168201915b5050935050505060405180910390a45050565b6000809054906101000a900473ffffffffffffffffffffffffffffffffffffffff1673ffffffffffffffffffffffffffffffffffffffff163373ffffffffffffffffffffffffffffffffffffffff1614151561165c57600080fd5b600073ffffffffffffffffffffffffffffffffffffffff168173ffffffffffffffffffffffffffffffffffffffff161415151561169857600080fd5b8073ffffffffffffffffffffffffffffffffffffffff166000809054906101000a900473ffffffffffffffffffffffffffffffffffffffff1673ffffffffffffffffffffffffffffffffffffffff167f8be0079c531659141344cd1fd0a4f28419497f9722a3daafe3b4186f6b6457e060405160405180910390a3806000806101000a81548173ffffffffffffffffffffffffffffffffffffffff021916908373ffffffffffffffffffffffffffffffffffffffff16021790555050565b600080600160009054906101000a900473ffffffffffffffffffffffffffffffffffffffff1673ffffffffffffffffffffffffffffffffffffffff1614806117c8575060006117c6600160009054906101000a900473ffffffffffffffffffffffffffffffffffffffff16612432565b145b156117d9576117d7600061243d565b505b600160009054906101000a900473ffffffffffffffffffffffffffffffffffffffff1673ffffffffffffffffffffffffffffffffffffffff166338cc48316040518163ffffffff167c0100000000000000000000000000000000000000000000000000000000028152600401602060405180830381600087803b15801561185f57600080fd5b505af1158015611873573d6000803e3d6000fd5b505050506040513d602081101561188957600080fd5b810190808051906020019092919050505073ffffffffffffffffffffffffffffffffffffffff16600260009054906101000a900473ffffffffffffffffffffffffffffffffffffffff1673ffffffffffffffffffffffffffffffffffffffff161415156119f257600160009054906101000a900473ffffffffffffffffffffffffffffffffffffffff1673ffffffffffffffffffffffffffffffffffffffff166338cc48316040518163ffffffff167c0100000000000000000000000000000000000000000000000000000000028152600401602060405180830381600087803b15801561197657600080fd5b505af115801561198a573d6000803e3d6000fd5b505050506040513d60208110156119a057600080fd5b8101908080519060200190929190505050600260006101000a81548173ffffffffffffffffffffffffffffffffffffffff021916908373ffffffffffffffffffffffffffffffffffffffff1602179055505b600260009054906101000a900473ffffffffffffffffffffffffffffffffffffffff1673ffffffffffffffffffffffffffffffffffffffff1663c281d19e6040518163ffffffff167c0100000000000000000000000000000000000000000000000000000000028152600401602060405180830381600087803b158015611a7857600080fd5b505af1158015611a8c573d6000803e3d6000fd5b505050506040513d6020811015611aa257600080fd5b8101908080519060200190929190505050905090565b600080600160009054906101000a900473ffffffffffffffffffffffffffffffffffffffff1673ffffffffffffffffffffffffffffffffffffffff161480611b2a57506000611b28600160009054906101000a900473ffffffffffffffffffffffffffffffffffffffff16612432565b145b15611b3b57611b39600061243d565b505b600160009054906101000a900473ffffffffffffffffffffffffffffffffffffffff1673ffffffffffffffffffffffffffffffffffffffff166338cc48316040518163ffffffff167c0100000000000000000000000000000000000000000000000000000000028152600401602060405180830381600087803b158015611bc157600080fd5b505af1158015611bd5573d6000803e3d6000fd5b505050506040513d6020811015611beb57600080fd5b810190808051906020019092919050505073ffffffffffffffffffffffffffffffffffffffff16600260009054906101000a900473ffffffffffffffffffffffffffffffffffffffff1673ffffffffffffffffffffffffffffffffffffffff16141515611d5457600160009054906101000a900473ffffffffffffffffffffffffffffffffffffffff1673ffffffffffffffffffffffffffffffffffffffff166338cc48316040518163ffffffff167c0100000000000000000000000000000000000000000000000000000000028152600401602060405180830381600087803b158015611cd857600080fd5b505af1158015611cec573d6000803e3d6000fd5b505050506040513d6020811015611d0257600080fd5b8101908080519060200190929190505050600260006101000a81548173ffffffffffffffffffffffffffffffffffffffff021916908373ffffffffffffffffffffffffffffffffffffffff1602179055505b600260009054906101000a900473ffffffffffffffffffffffffffffffffffffffff1673ffffffffffffffffffffffffffffffffffffffff1663524f3889836040518263ffffffff167c01000000000000000000000000000000000000000000000000000000000281526004018080602001828103825283818151815260200191508051906020019080838360005b83811015611dfe578082015181840152602081019050611de3565b50505050905090810190601f168015611e2b5780820380516001836020036101000a031916815260200191505b5092505050602060405180830381600087803b158015611e4a57600080fd5b505af1158015611e5e573d6000803e3d6000fd5b505050506040513d6020811015611e7457600080fd5b81019080805190602001909291905050509050919050565b6000806000600160009054906101000a900473ffffffffffffffffffffffffffffffffffffffff1673ffffffffffffffffffffffffffffffffffffffff161480611f0057506000611efe600160009054906101000a900473ffffffffffffffffffffffffffffffffffffffff16612432565b145b15611f1157611f0f600061243d565b505b600160009054906101000a900473ffffffffffffffffffffffffffffffffffffffff1673ffffffffffffffffffffffffffffffffffffffff166338cc48316040518163ffffffff167c0100000000000000000000000000000000000000000000000000000000028152600401602060405180830381600087803b158015611f9757600080fd5b505af1158015611fab573d6000803e3d6000fd5b505050506040513d6020811015611fc157600080fd5b810190808051906020019092919050505073ffffffffffffffffffffffffffffffffffffffff16600260009054906101000a900473ffffffffffffffffffffffffffffffffffffffff1673ffffffffffffffffffffffffffffffffffffffff1614151561212a57600160009054906101000a900473ffffffffffffffffffffffffffffffffffffffff1673ffffffffffffffffffffffffffffffffffffffff166338cc48316040518163ffffffff167c0100000000000000000000000000000000000000000000000000000000028152600401602060405180830381600087803b1580156120ae57600080fd5b505af11580156120c2573d6000803e3d6000fd5b505050506040513d60208110156120d857600080fd5b8101908080519060200190929190505050600260006101000a81548173ffffffffffffffffffffffffffffffffffffffff021916908373ffffffffffffffffffffffffffffffffffffffff1602179055505b600260009054906101000a900473ffffffffffffffffffffffffffffffffffffffff1673ffffffffffffffffffffffffffffffffffffffff1663524f3889856040518263ffffffff167c01000000000000000000000000000000000000000000000000000000000281526004018080602001828103825283818151815260200191508051906020019080838360005b838110156121d45780820151818401526020810190506121b9565b50505050905090810190601f1680156122015780820380516001836020036101000a031916815260200191505b5092505050602060405180830381600087803b15801561222057600080fd5b505af1158015612234573d6000803e3d6000fd5b505050506040513d602081101561224a57600080fd5b8101908080519060200190929190505050905062030d403a02670de0b6b3a764000001811115612280576000600102915061242a565b600260009054906101000a900473ffffffffffffffffffffffffffffffffffffffff1673ffffffffffffffffffffffffffffffffffffffff1663adf59f99828787876040518563ffffffff167c0100000000000000000000000000000000000000000000000000000000028152600401808481526020018060200180602001838103835285818151815260200191508051906020019080838360005b8381101561233757808201518184015260208101905061231c565b50505050905090810190601f1680156123645780820380516001836020036101000a031916815260200191505b50838103825284818151815260200191508051906020019080838360005b8381101561239d578082015181840152602081019050612382565b50505050905090810190601f1680156123ca5780820380516001836020036101000a031916815260200191505b50955050505050506020604051808303818588803b1580156123eb57600080fd5b505af11580156123ff573d6000803e3d6000fd5b50505050506040513d602081101561241657600080fd5b810190808051906020019092919050505091505b509392505050565b6000813b9050919050565b600061244761244e565b9050919050565b60008061246e731d3b2638a7cc9f2cb3d298a3da7a90b67e5506ed612432565b111561251057731d3b2638a7cc9f2cb3d298a3da7a90b67e5506ed600160006101000a81548173ffffffffffffffffffffffffffffffffffffffff021916908373ffffffffffffffffffffffffffffffffffffffff1602179055506125076040805190810160405280600b81526020017f6574685f6d61696e6e65740000000000000000000000000000000000000000008152506128e4565b600190506128e1565b600061252f73c03a2615d5efaf5f49f60b7bb6583eaec212fdf1612432565b11156125d15773c03a2615d5efaf5f49f60b7bb6583eaec212fdf1600160006101000a81548173ffffffffffffffffffffffffffffffffffffffff021916908373ffffffffffffffffffffffffffffffffffffffff1602179055506125c86040805190810160405280600c81526020017f6574685f726f707374656e3300000000000000000000000000000000000000008152506128e4565b600190506128e1565b60006125f073b7a07bcf2ba2f2703b24c0691b5278999c59ac7e612432565b11156126925773b7a07bcf2ba2f2703b24c0691b5278999c59ac7e600160006101000a81548173ffffffffffffffffffffffffffffffffffffffff021916908373ffffffffffffffffffffffffffffffffffffffff1602179055506126896040805190810160405280600981526020017f6574685f6b6f76616e00000000000000000000000000000000000000000000008152506128e4565b600190506128e1565b60006126b173146500cfd35b22e4a392fe0adc06de1a1368ed48612432565b11156127535773146500cfd35b22e4a392fe0adc06de1a1368ed48600160006101000a81548173ffffffffffffffffffffffffffffffffffffffff021916908373ffffffffffffffffffffffffffffffffffffffff16021790555061274a6040805190810160405280600b81526020017f6574685f72696e6b6562790000000000000000000000000000000000000000008152506128e4565b600190506128e1565b6000612772736f485c8bf6fc43ea212e93bbf8ce046c7f1cb475612432565b11156127d657736f485c8bf6fc43ea212e93bbf8ce046c7f1cb475600160006101000a81548173ffffffffffffffffffffffffffffffffffffffff021916908373ffffffffffffffffffffffffffffffffffffffff160217905550600190506128e1565b60006127f57320e12a1f859b3feae5fb2a0a32c18f5a65555bbf612432565b1115612859577320e12a1f859b3feae5fb2a0a32c18f5a65555bbf600160006101000a81548173ffffffffffffffffffffffffffffffffffffffff021916908373ffffffffffffffffffffffffffffffffffffffff160217905550600190506128e1565b60006128787351efaf4c8b3c9afbd5ab9f4bbc82784ab6ef8faa612432565b11156128dc577351efaf4c8b3c9afbd5ab9f4bbc82784ab6ef8faa600160006101000a81548173ffffffffffffffffffffffffffffffffffffffff021916908373ffffffffffffffffffffffffffffffffffffffff160217905550600190506128e1565b600090505b90565b80600390805190602001906128fa9291906128fe565b5050565b828054600181600116156101000203166002900490600052602060002090601f016020900481019282601f1061293f57805160ff191683800117855561296d565b8280016001018555821561296d579182015b8281111561296c578251825591602001919060010190612951565b5b50905061297a91906129fe565b5090565b828054600181600116156101000203166002900490600052602060002090601f016020900481019282601f106129bf57805160ff19168380011785556129ed565b828001600101855582156129ed579182015b828111156129ec5782518255916020019190600101906129d1565b5b5090506129fa91906129fe565b5090565b612a2091905b80821115612a1c576000816000905550600101612a04565b5090565b905600a165627a7a723058204164e7b627921105655dae9763281ed4e2e53290467d3d10d264b3596f0f925c0029",
  "source": "pragma solidity ^0.4.18;\n\n/** @dev Uses Oracle from EthPM (see installed_contracts) */\nimport \"installed_contracts/oraclize-api/contracts/usingOraclize.sol\";\n\n/** @dev Uses Zeppelin from EthPM (see installed_contracts) */\nimport \"installed_contracts/zeppelin/contracts/ownership/Ownable.sol\";\nimport \"installed_contracts/zeppelin/contracts/lifecycle/Pausable.sol\";\n\ncontract MarketPlace is Ownable, usingOraclize, Pausable {\n  \n   \n  /** \n  * @dev  Conversaion rate from Oracle API\n  */  \n  string public ETHUSD;\n\n  /** \n  * @dev  Item Counter\n  */  \n  uint itemCounter;\n\n\n  /** \n  * @dev  Items Mapping List\n  */  \n  mapping(uint => Item) public items;\n\n\n  /** \n  * @dev  Event if new item added\n  */  \n  event sellItemEvent(\n    uint indexed _id,\n    address indexed _seller,\n    string _name,\n    uint256 _price);\n  /** \n  * @dev  Event if item bought\n  */ \n  event buyItemEvent(\n    uint indexed _id,\n    address indexed _seller,\n    address indexed _buyer,\n    string _name,\n    uint256 _price);\n\n  /** \n  * @dev  Event if price updated from Oracle Api\n  */ \n  event LogPriceUpdated(string price);\n\n  /** \n  * @dev  Event Oracle Query hase been sent\n  */ \n  event LogNewOraclizeQuery(string description);\n\n\n  /** \n  * @dev  Create item struct \n  */  \n  struct Item {\n    uint id;\n    address seller;\n    address buyer;\n    string name;\n    string description;\n    uint256 price;\n  }\n\n \n  /** \n   * @dev Callback function getting result from OracleAPI\n   * @param result the result containg the answer we request\n   */\n  function __callback(bytes32 id, string result, bytes proof)\n    public {\n        require(msg.sender == oraclize_cbAddress());\n\n        ETHUSD = result;\n        emit LogPriceUpdated(ETHUSD);\n        updatePrice();\n    }\n\n    /** \n    * @dev Constructor to initialze Oracle Api and call the updatePrice to receive latest ETHUSD rate\n    */\n    function MarketPlace() payable public{\n\n      //change here with the ethereum-bridge generated in your local\n     OAR = OraclizeAddrResolverI(0xB45bCafF097e0EC3492A4c39dA3105B693fD9B59);\n      oraclize_setProof(proofType_TLSNotary | proofStorage_IPFS);\n\n      updatePrice();\n    }\n\n \n    /** \n    * @dev  Oraclize query to receive latest ETHUSD rate every 10 seconds\n    */    \n   function updatePrice() public payable  {\n       if (oraclize_getPrice(\"URL\") > address(this).balance) {\n           emit LogNewOraclizeQuery(\"Oraclize query was NOT sent, please add some ETH to cover for the query fee\");\n       } else {\n           emit LogNewOraclizeQuery(\"Oraclize query was sent, standing by for the answer..\");\n           oraclize_query(10,\"URL\", \"json(https://api.gdax.com/products/ETH-USD/ticker).price\");\n       }\n   }\n\n  /** \n  * @dev  fetch the number of items in the contract\n  * @return number of items\n  */ \n  function getNumberOfItems() public constant returns (uint) {\n    return itemCounter;\n  }\n\n\n  /** \n  * @dev  fetch and returns all items IDs available for sale\n  * @return items for sale only\n  */ \n  function getItemsForSale() public constant returns (uint[]) {\n    // check at least one item\n    if(itemCounter == 0) {\n      return new uint[](0);\n    }\n\n    uint[] memory itemIds = new uint[](itemCounter);\n\n    uint numberOfItemsForSale = 0;\n    \n    for (uint i = 1; i <= itemCounter; i++) {\n      // retrive the ID of items not sold yet\n      if (items[i].buyer == 0x0) {\n        itemIds[numberOfItemsForSale] = items[i].id;\n        numberOfItemsForSale++;\n      }\n    }\n\n    \n    uint[] memory filteredItems = new uint[](numberOfItemsForSale);\n    for (uint j = 0; j < numberOfItemsForSale; j++) {\n      filteredItems[j] = itemIds[j];\n    }\n    return (filteredItems);\n  }\n\n\n  /** \n  * @dev  Add new item to the items list and emit an event \n  * @param _name title name of the item\n  * @param _description description of item\n  * @param _price the price of the item in ether\n  */ \n  function sellItem(string _name, string _description, uint256 _price) public whenNotPaused {\n    // increase counter of items\n    itemCounter++;\n\n    //save this item to items mapping\n    items[itemCounter] = Item(\n        itemCounter,\n        msg.sender,\n        0x0,\n        _name,\n        _description,\n        _price\n      );\n\n    // trigger the event\n    emit sellItemEvent(itemCounter, msg.sender, _name, _price);\n  }\n\n  /** \n  * @dev  buy item and add the buyer address to the item\n  * @param _id item id\n  */ \n  function buyItem(uint _id) payable public whenNotPaused {\n    //at least on item\n    require(itemCounter > 0);\n\n    // check if the item exist\n    require(_id > 0 && _id <= itemCounter);\n\n    \n    Item storage item = items[_id];\n\n    // check of the item not been sold\n    require(item.buyer == 0x0);\n\n    // the sellet cannot buy his item\n    require(item.seller != msg.sender);\n\n    // check the value of ether sent to the item price\n    require(item.price == msg.value);\n\n    // store buyer address\n    item.buyer = msg.sender;\n\n    // send the money to the seller\n    item.seller.transfer(msg.value);\n\n    // raise the event\n    emit buyItemEvent(_id, item.seller, item.buyer, item.name, item.price);\n  }\n\n   // Fallback function\n    function() external payable {\n\n    }\n\n  function kill() onlyOwner public {\n    selfdestruct(owner);\n  }\n}\n",
  "sourcePath": "/Users/ericxxp/Desktop/JomjomaMarketPlace/contracts/MarketPlace.sol",
  "compiler": {
    "name": "solc",
    "version": "0.4.24+commit.e67f0147.Emscripten.clang"
  },
  "schemaVersion": "2.0.1",
  "updatedAt": "2018-08-28T08:31:45.833Z"
}